:020000040000FA
:060000000A128A110C280F
:10000800FE00030EF0000A08F1000A128A112A2BDA
:100018000A128A110F28FA01FB0183120313B20195
:10002800B30183010A128A11CE2A83120313AB008B
:10003800A61B1F282128013022280030A8002808E4
:10004800AD002D08031929282A283028A509A60952
:10005800A50A0319A60A30282408A8002808F500CC
:100068002B080A128A1182230A128A11103083126D
:100078000313AE002730AF000530A8002808AC00F5
:100088007428831203132F08F3002E08F2002608A1
:10009800F5002508F4000A128A1180210A128A1133
:1000A80072087304031D59285A288E2801308312B8
:1000B8000313AC0260288E280A30F2000030F300E7
:1000C8002F08F5002E08F4000A128A1180210A125E
:1000D8008A11730883120313AF007208AE007428E4
:1000E8002F08803AFF0080307F02031D7D280130F1
:1000F8002E0203188028812845288E288E28203033
:100108000A128A11FF220A128A110130831203137C
:10011800A7028E28831203132C082D07A800A90113
:10012800A90D2908803AAA0080302A02031D9E28BA
:10013800270828020318A128A228AC280230831215
:10014800031327020318A928AA288328AC28AC2857
:10015800831203132D080319B228B328BA282D30A7
:100168000A128A11FF220A128A11BA28831203136B
:100178002F08F3002E08F2002608F5002508F400E1
:100188000A128A1180210A128A117208303E0A1254
:100198008A11FF220A128A11831203132F08F3000F
:1001A8002E08F2002608F5002508F4000A128A1124
:1001B800F3210A128A11730883120313A600720826
:1001C800A5000A30F2000030F3002F08F5002E08D1
:1001D800F4000A128A1180210A128A117308831204
:1001E8000313AF007208AE002F08803AFF0080307A
:1001F8007F02031D012901302E0203180429052955
:10020800BA2806290800F400831203130812740898
:10021800F20004300310F20CFF3E031D0E290808FB
:100228007206F039720688008812740303191D29B2
:100238001E29252902307406031D232924292F2964
:1002480025290330F3009730F200F20B2929F30B2C
:1002580029292E2934290D30F200F20B31293429AD
:10026800831203138816F0307405F20020307206EA
:10027800031D3F294029572908127408F200043049
:100288000310F20CFF3E031D442908087206F039DA
:100298007206880088120D30F200F20B5129831281
:1002A80003138816572908120F307405F20008083E
:1002B8007206F039720688008812740303196529DA
:1002C80066296D2902307406031D6B296C2977296C
:1002D8006D290330F3009730F200F20B7129F30B0C
:1002E800712976297C290D30F200F20B79297C29B5
:1002F800831203138816080083120313A101F31F46
:10030800862987298F29F209F309F20A0319F30AC2
:10031800A101A10A8F29F51F922993299D29F40982
:10032800F509F40A0319F50A0130F6007608A10662
:100338009D29A201A301720873040319A429A52900
:10034800E229A001A00AB42901300310F20DF30D2F
:10035800FF3E031DA9290130F6007608A007B4293D
:10036800F31FB729B829A829BA29BA2901300310D7
:10037800A20DA30DFF3E031DBB2973087502031DC3
:10038800C72972087402031CCA29CB29D329720809
:10039800F4027308031CF503F5022214D329013073
:1003A8000310F30CF20CFF3E031DD4290130A00208
:1003B800031DDF29E029BA29E229E22921080319C6
:1003C800E629E729ED29A209A309A20A0319A30A24
:1003D800ED292308F3002208F200F2290800F801A9
:1003E800F51FF729F829002AF409F509F40A031971
:1003F800F50AF801F80A002AF31F032A042A0A2A30
:10040800F209F309F20A0319F30A0A2A72087304B3
:1004180003190F2A102A452AF701F70A1F2A013063
:100428000310F20DF30DFF3E031D142A0130F600F0
:100438007608F7071F2AF31F222A232A132A252AB8
:10044800252A73087502031D2B2A72087402031CDF
:100458002E2A2F2A362A7208F4027308031CF50381
:10046800F502362A01300310F30CF20CFF3E031D8F
:10047800372A0130F702031D422A432A252A452A32
:10048800452A78080319492A4A2A502AF409F509FD
:10049800F40A0319F50A502A7508F3007408F200E3
:1004A800552A08006430F2000030F3000A128A115D
:1004B8006B230A128A118316031308108810081177
:1004C800881108128812081788176430F200003063
:1004D800F3000A128A116B230A128A11831203137A
:1004E800881628300A128A1107210A128A110C303C
:1004F8000A128A1107210A128A1101300A128A1176
:1005080007210A128A1102300A128A1107210A12D7
:100518008A116430F2000030F3000A128A116B234A
:100528000A128A11080083120313A2007808A00097
:100538002008A1007808A0002008F50022080A1267
:100548008A1182230A128A11C02A790884000A12A1
:100558008A1154230A128A110A128A11FF220A12D6
:100568008A11013083120313A0002008F907013013
:10057800A0002008A107C02A790884000A128A115D
:1005880054230A128A11003A031DCB2ACC2AA92A1D
:10059800CD2A08000A128A1156220A128A110A1252
:1005A8008A1195230A128A11F80101308312031364
:1005B800B0003008F90000300A128A1197220A1296
:1005C8008A11E62A0A3083120313B0003008A40007
:1005D8003308A6003208A5000530B1003108A7008D
:1005E80000300A128A1119200A128A11E62AE62A0C
:1005F8000A128A110C28F3008312031308167308D1
:10060800F20004300310F20CFF3E031D062B08080D
:100618007206F0397206880088120D30F200F20B6B
:10062800132B83120313881608160F307305F20074
:1006380008087206F0397206880088120D30F20038
:10064800F20B242B83120313881608008B130B1D3F
:100658002E2B2F2B4C2B0B119C3083120313810054
:10066800FF30FA070318FB0AFF30FB077A087B0400
:10067800031D3F2B402B4C2B0130B2070318B30A44
:100688000030B3071030FA002730FB004C2B4C2BFE
:100698008B1771088A00700E8300FE0E7E0E09000B
:1006A80003308A000408840A8207003443346F3414
:1006B8006E347434613464346F3472343A342034B0
:1006C80020342034203420342034203400347A2B51
:1006D800C730F4006F2BF40B6E2B722B732B013089
:1006E800F2020030031CF303F3027A2B720873043E
:1006F800031D7F2B802B6C2B812B0800F7007708BC
:10070800F60006300310F60DFF3E031D862B750814
:1007180076077F39803E0A128A1107210A128A1148
:10072800080083160313811281159C30831203136A
:1007380081008B168B17B201B3011030FA002730F5
:04074800FB000800AA
:04400E00D4E0FFFFFC
:00000001FF
